{
  "_format": "hh-sol-artifact-1",
  "contractName": "DigitalForensics",
  "sourceName": "contracts/DigitalForensics.sol",
  "abi": [
    {
      "inputs": [],
      "stateMutability": "nonpayable",
      "type": "constructor"
    },
    {
      "inputs": [
        {
          "internalType": "string",
          "name": "_desc",
          "type": "string"
        },
        {
          "internalType": "int256",
          "name": "_datetime",
          "type": "int256"
        },
        {
          "internalType": "string[]",
          "name": "_evidenceCids",
          "type": "string[]"
        },
        {
          "internalType": "string[]",
          "name": "_evidenceCollected_by",
          "type": "string[]"
        }
      ],
      "name": "addCase",
      "outputs": [
        {
          "components": [
            {
              "internalType": "string",
              "name": "desc",
              "type": "string"
            },
            {
              "internalType": "int256",
              "name": "datetime",
              "type": "int256"
            },
            {
              "internalType": "address",
              "name": "owner",
              "type": "address"
            },
            {
              "internalType": "string[]",
              "name": "evidenceCids",
              "type": "string[]"
            },
            {
              "internalType": "string[]",
              "name": "evidenceCollected_by",
              "type": "string[]"
            },
            {
              "internalType": "address",
              "name": "labAssigned",
              "type": "address"
            },
            {
              "internalType": "int256[]",
              "name": "reportIds",
              "type": "int256[]"
            },
            {
              "internalType": "string",
              "name": "inference",
              "type": "string"
            },
            {
              "internalType": "string[]",
              "name": "inferenceIds",
              "type": "string[]"
            }
          ],
          "internalType": "struct DigitalForensics.indiCase",
          "name": "",
          "type": "tuple"
        }
      ],
      "stateMutability": "nonpayable",
      "type": "function"
    },
    {
      "inputs": [
        {
          "internalType": "address",
          "name": "add",
          "type": "address"
        },
        {
          "internalType": "string",
          "name": "userType",
          "type": "string"
        }
      ],
      "name": "addUser",
      "outputs": [
        {
          "internalType": "bool",
          "name": "",
          "type": "bool"
        }
      ],
      "stateMutability": "nonpayable",
      "type": "function"
    },
    {
      "inputs": [
        {
          "internalType": "int256",
          "name": "_caseId",
          "type": "int256"
        },
        {
          "internalType": "address",
          "name": "labAddress",
          "type": "address"
        },
        {
          "internalType": "string",
          "name": "testDesc",
          "type": "string"
        },
        {
          "internalType": "int256",
          "name": "_currdatetime",
          "type": "int256"
        }
      ],
      "name": "assignLab",
      "outputs": [
        {
          "internalType": "bool",
          "name": "",
          "type": "bool"
        }
      ],
      "stateMutability": "nonpayable",
      "type": "function"
    },
    {
      "inputs": [
        {
          "internalType": "address",
          "name": "_add",
          "type": "address"
        }
      ],
      "name": "getAllCasesAssignedToCourt",
      "outputs": [
        {
          "internalType": "int256[]",
          "name": "val",
          "type": "int256[]"
        }
      ],
      "stateMutability": "view",
      "type": "function"
    },
    {
      "inputs": [
        {
          "internalType": "int256",
          "name": "_caseId",
          "type": "int256"
        }
      ],
      "name": "getCOC",
      "outputs": [
        {
          "components": [
            {
              "internalType": "int256",
              "name": "datetime",
              "type": "int256"
            },
            {
              "internalType": "string",
              "name": "action",
              "type": "string"
            },
            {
              "internalType": "address",
              "name": "performed_by",
              "type": "address"
            },
            {
              "internalType": "string",
              "name": "status",
              "type": "string"
            }
          ],
          "internalType": "struct DigitalForensics.indiChainOfCustody[]",
          "name": "",
          "type": "tuple[]"
        }
      ],
      "stateMutability": "view",
      "type": "function"
    },
    {
      "inputs": [
        {
          "internalType": "int256",
          "name": "_caseId",
          "type": "int256"
        }
      ],
      "name": "getCaseDetails",
      "outputs": [
        {
          "components": [
            {
              "internalType": "string",
              "name": "desc",
              "type": "string"
            },
            {
              "internalType": "int256",
              "name": "datetime",
              "type": "int256"
            },
            {
              "internalType": "address",
              "name": "owner",
              "type": "address"
            },
            {
              "internalType": "string[]",
              "name": "evidenceCids",
              "type": "string[]"
            },
            {
              "internalType": "string[]",
              "name": "evidenceCollected_by",
              "type": "string[]"
            },
            {
              "internalType": "address",
              "name": "labAssigned",
              "type": "address"
            },
            {
              "internalType": "int256[]",
              "name": "reportIds",
              "type": "int256[]"
            },
            {
              "internalType": "string",
              "name": "inference",
              "type": "string"
            },
            {
              "internalType": "string[]",
              "name": "inferenceIds",
              "type": "string[]"
            }
          ],
          "internalType": "struct DigitalForensics.indiCase",
          "name": "returnedCase",
          "type": "tuple"
        }
      ],
      "stateMutability": "view",
      "type": "function"
    },
    {
      "inputs": [
        {
          "internalType": "int256",
          "name": "_caseId",
          "type": "int256"
        }
      ],
      "name": "getCourtsAccessed",
      "outputs": [
        {
          "internalType": "address[]",
          "name": "",
          "type": "address[]"
        }
      ],
      "stateMutability": "view",
      "type": "function"
    },
    {
      "inputs": [],
      "name": "getMyRole",
      "outputs": [
        {
          "internalType": "string",
          "name": "role",
          "type": "string"
        }
      ],
      "stateMutability": "view",
      "type": "function"
    },
    {
      "inputs": [
        {
          "internalType": "int256",
          "name": "_reportId",
          "type": "int256"
        }
      ],
      "name": "getReportDetails",
      "outputs": [
        {
          "components": [
            {
              "internalType": "int256",
              "name": "case_id",
              "type": "int256"
            },
            {
              "internalType": "string",
              "name": "case_desc",
              "type": "string"
            },
            {
              "internalType": "address",
              "name": "case_owner",
              "type": "address"
            },
            {
              "internalType": "string[]",
              "name": "evidenceCids",
              "type": "string[]"
            },
            {
              "internalType": "address",
              "name": "lab_owner",
              "type": "address"
            },
            {
              "internalType": "string",
              "name": "testDesc",
              "type": "string"
            },
            {
              "internalType": "string",
              "name": "reportStatus",
              "type": "string"
            },
            {
              "internalType": "string[]",
              "name": "reportCids",
              "type": "string[]"
            },
            {
              "internalType": "string",
              "name": "reportInference",
              "type": "string"
            },
            {
              "internalType": "int256",
              "name": "datetimeReceived",
              "type": "int256"
            }
          ],
          "internalType": "struct DigitalForensics.indiReport",
          "name": "returnedReport",
          "type": "tuple"
        }
      ],
      "stateMutability": "view",
      "type": "function"
    },
    {
      "inputs": [],
      "name": "getUsers",
      "outputs": [
        {
          "internalType": "address[]",
          "name": "",
          "type": "address[]"
        },
        {
          "internalType": "string[]",
          "name": "",
          "type": "string[]"
        }
      ],
      "stateMutability": "view",
      "type": "function"
    },
    {
      "inputs": [
        {
          "internalType": "int256",
          "name": "_caseId",
          "type": "int256"
        },
        {
          "internalType": "address",
          "name": "to_grant_add",
          "type": "address"
        },
        {
          "internalType": "int256",
          "name": "_datetime",
          "type": "int256"
        }
      ],
      "name": "grantAccessToCourt",
      "outputs": [
        {
          "internalType": "bool",
          "name": "",
          "type": "bool"
        }
      ],
      "stateMutability": "nonpayable",
      "type": "function"
    },
    {
      "inputs": [
        {
          "internalType": "address",
          "name": "_add",
          "type": "address"
        }
      ],
      "name": "listAllCases",
      "outputs": [
        {
          "internalType": "int256[]",
          "name": "listOfCases",
          "type": "int256[]"
        }
      ],
      "stateMutability": "view",
      "type": "function"
    },
    {
      "inputs": [
        {
          "internalType": "address",
          "name": "_add",
          "type": "address"
        }
      ],
      "name": "listAllReports",
      "outputs": [
        {
          "internalType": "int256[]",
          "name": "listOfReports",
          "type": "int256[]"
        }
      ],
      "stateMutability": "view",
      "type": "function"
    },
    {
      "inputs": [
        {
          "internalType": "int256",
          "name": "_caseId",
          "type": "int256"
        },
        {
          "internalType": "int256",
          "name": "_datetime",
          "type": "int256"
        },
        {
          "internalType": "string[]",
          "name": "_inferenceId",
          "type": "string[]"
        },
        {
          "internalType": "string",
          "name": "_inference",
          "type": "string"
        }
      ],
      "name": "markCaseSolved",
      "outputs": [
        {
          "internalType": "bool",
          "name": "",
          "type": "bool"
        }
      ],
      "stateMutability": "nonpayable",
      "type": "function"
    },
    {
      "inputs": [
        {
          "internalType": "int256",
          "name": "_reportId",
          "type": "int256"
        }
      ],
      "name": "markReportAsDone",
      "outputs": [
        {
          "internalType": "bool",
          "name": "",
          "type": "bool"
        }
      ],
      "stateMutability": "nonpayable",
      "type": "function"
    },
    {
      "inputs": [
        {
          "internalType": "int256",
          "name": "_caseId",
          "type": "int256"
        },
        {
          "internalType": "address",
          "name": "to_revoke_add",
          "type": "address"
        },
        {
          "internalType": "int256",
          "name": "_datetime",
          "type": "int256"
        }
      ],
      "name": "revokeAccessFromCourt",
      "outputs": [
        {
          "internalType": "bool",
          "name": "",
          "type": "bool"
        }
      ],
      "stateMutability": "nonpayable",
      "type": "function"
    },
    {
      "inputs": [
        {
          "internalType": "int256",
          "name": "_reportId",
          "type": "int256"
        },
        {
          "internalType": "int256",
          "name": "_datetime",
          "type": "int256"
        },
        {
          "internalType": "string[]",
          "name": "_reportCids",
          "type": "string[]"
        },
        {
          "internalType": "string",
          "name": "_reportInference",
          "type": "string"
        }
      ],
      "name": "updateReport",
      "outputs": [
        {
          "internalType": "bool",
          "name": "",
          "type": "bool"
        }
      ],
      "stateMutability": "nonpayable",
      "type": "function"
    }
  ],
  "bytecode": "0x6103e86000908155611388600155608081905260a06040819052620000289160039190620000a8565b503480156200003657600080fd5b5060408051808201909152600581526430b236b4b760d91b60208083019190915273f39fd6e51aad88f6f4ce6ab8827279cfffb92266600052600290527fbc40fbf4394cd00f78fae9763b0c2c71b21ea442c42fdadc5b720537240ebac190620000a19082620001d0565b506200029c565b82805482825590600052602060002090810192821562000100579160200282015b828111156200010057825182546001600160a01b0319166001600160a01b03909116178255602090920191600190910190620000c9565b506200010e92915062000112565b5090565b5b808211156200010e576000815560010162000113565b634e487b7160e01b600052604160045260246000fd5b600181811c908216806200015457607f821691505b6020821081036200017557634e487b7160e01b600052602260045260246000fd5b50919050565b601f821115620001cb576000816000526020600020601f850160051c81016020861015620001a65750805b601f850160051c820191505b81811015620001c757828155600101620001b2565b5050505b505050565b81516001600160401b03811115620001ec57620001ec62000129565b6200020481620001fd84546200013f565b846200017b565b602080601f8311600181146200023c5760008415620002235750858301515b600019600386901b1c1916600185901b178555620001c7565b600085815260208120601f198616915b828110156200026d578886015182559484019460019091019084016200024c565b50858210156200028c5787850151600019600388901b60f8161c191681555b5050505050600190811b01905550565b61464580620002ac6000396000f3fe608060405234801561001057600080fd5b506004361061010a5760003560e01c80635fe9ccb6116100a2578063b64e3e2b11610071578063b64e3e2b14610245578063c187996a14610258578063c3c6d1db1461026b578063f548a3ea1461027e578063f76eb5851461029157600080fd5b80635fe9ccb6146101ea5780636e3b47fc146101fd5780638e0a18e614610212578063b64cd9761461023257600080fd5b80633948ad10116100de5780633948ad101461019157806346a222de146101a457806347610c3e146101c45780634b68d431146101d757600080fd5b8062ce8e3e1461010f5780632b8e060f1461012e57806330f2f8671461014e57806332bd0a1914610171575b600080fd5b6101176102b1565b604051610125929190613997565b60405180910390f35b61014161013c366004613b5f565b610534565b6040516101259190613c7c565b61016161015c366004613d95565b610ce2565b6040519015158152602001610125565b61018461017f366004613df4565b611353565b6040516101259190613e0f565b61016161019f366004613e22565b61146a565b6101b76101b2366004613e8d565b611692565b6040516101259190613ea6565b6101416101d2366004613e8d565b611993565b6101616101e5366004613f4e565b611f58565b6101616101f8366004613f9c565b612046565b6102056124c9565b6040516101259190613fd1565b610225610220366004613e8d565b61256a565b6040516101259190613fe4565b610161610240366004613e22565b612610565b610184610253366004613df4565b6127d3565b610161610266366004613e8d565b6128e2565b610161610279366004613f9c565b612a2d565b61018461028c366004613df4565b612d27565b6102a461029f366004613e8d565b612e13565b6040516101259190613ff7565b6060806040516020016102c390614101565b60408051601f198184030181528282528051602091820120336000908152600283529290922091926102f6929101614146565b60405160208183030381529060405280519060200120146103325760405162461bcd60e51b8152600401610329906141bc565b60405180910390fd5b60035460009067ffffffffffffffff81111561035057610350613a09565b604051908082528060200260200182016040528015610379578160200160208202803683370190505b5060035490915060009067ffffffffffffffff81111561039b5761039b613a09565b6040519080825280602002602001820160405280156103ce57816020015b60608152602001906001900390816103b95790505b50905060005b60035481101561052a57600381815481106103f1576103f16141e9565b9060005260206000200160009054906101000a90046001600160a01b0316838281518110610421576104216141e9565b60200260200101906001600160a01b031690816001600160a01b0316815250506002600060038381548110610458576104586141e9565b60009182526020808320909101546001600160a01b031683528201929092526040019020805461048790614112565b80601f01602080910402602001604051908101604052809291908181526020018280546104b390614112565b80156105005780601f106104d557610100808354040283529160200191610500565b820191906000526020600020905b8154815290600101906020018083116104e357829003601f168201915b5050505050828281518110610517576105176141e9565b60209081029190910101526001016103d4565b5090939092509050565b61053c613767565b60405165706f6c69636560d01b602082015260260160408051601f19818403018152828252805160209182012033600090815260028352929092209192610584929101614146565b60405160208183030381529060405280519060200120146105f15760405162461bcd60e51b815260206004820152602160248201527f596f7520617265206e6f7420616c6c6f77656420746f204164642061204361736044820152606560f81b6064820152608401610329565b6000805490600190806106048385614215565b90915550503360008181526004602090815260408083208054600181018255908452828420018590558051610120810182528a81528083018a905280820194909452606084018890526080840187905260a084018390528051838152808301825260c08501528051808301825283815260e0850152805183815291820190526101008301916106a3565b606081526020019060019003908161068e5790505b5090526000828152600560205260409020815181906106c2908261428e565b50602082810151600183015560408301516002830180546001600160a01b0319166001600160a01b039092169190911790556060830151805161070b92600385019201906137c5565b50608082015180516107279160048401916020909101906137c5565b5060a08201516005820180546001600160a01b0319166001600160a01b0390921691909117905560c0820151805161076991600684019160209091019061381b565b5060e0820151600782019061077e908261428e565b50610100820151805161079b9160088401916020909101906137c5565b505050600081815260086020818152604080842081516080810183528a815282518084018452600781526610dc99585d195960ca1b818601528185019081523382850152835180850190945294835267155b9cdbdb1d995960c21b83850152606081019290925280546001818101835591865292909420815160049093020191825591519192909190820190610831908261428e565b5060408201516002820180546001600160a01b0319166001600160a01b039092169190911790556060820151600382019061086c908261428e565b505050600081815260056020526040908190208151610120810190925280548290829061089890614112565b80601f01602080910402602001604051908101604052809291908181526020018280546108c490614112565b80156109115780601f106108e657610100808354040283529160200191610911565b820191906000526020600020905b8154815290600101906020018083116108f457829003601f168201915b50505050508152602001600182015481526020016002820160009054906101000a90046001600160a01b03166001600160a01b03166001600160a01b0316815260200160038201805480602002602001604051908101604052809291908181526020016000905b82821015610a2457838290600052602060002001805461099790614112565b80601f01602080910402602001604051908101604052809291908181526020018280546109c390614112565b8015610a105780601f106109e557610100808354040283529160200191610a10565b820191906000526020600020905b8154815290600101906020018083116109f357829003601f168201915b505050505081526020019060010190610978565b50505050815260200160048201805480602002602001604051908101604052809291908181526020016000905b82821015610afd578382906000526020600020018054610a7090614112565b80601f0160208091040260200160405190810160405280929190818152602001828054610a9c90614112565b8015610ae95780601f10610abe57610100808354040283529160200191610ae9565b820191906000526020600020905b815481529060010190602001808311610acc57829003601f168201915b505050505081526020019060010190610a51565b5050509082525060058201546001600160a01b03166020808301919091526006830180546040805182850281018501825282815294019392830182828015610b6457602002820191906000526020600020905b815481526020019060010190808311610b50575b50505050508152602001600782018054610b7d90614112565b80601f0160208091040260200160405190810160405280929190818152602001828054610ba990614112565b8015610bf65780601f10610bcb57610100808354040283529160200191610bf6565b820191906000526020600020905b815481529060010190602001808311610bd957829003601f168201915b5050505050815260200160088201805480602002602001604051908101604052809291908181526020016000905b82821015610cd0578382906000526020600020018054610c4390614112565b80601f0160208091040260200160405190810160405280929190818152602001828054610c6f90614112565b8015610cbc5780601f10610c9157610100808354040283529160200191610cbc565b820191906000526020600020905b815481529060010190602001808311610c9f57829003601f168201915b505050505081526020019060010190610c24565b50505091525090979650505050505050565b6000848152600560205260408120600201546001600160a01b03163314610d1b5760405162461bcd60e51b81526004016103299061434e565b600085815260056020819052604090912001546001600160a01b031615610d8e5760405162461bcd60e51b815260206004820152602160248201527f4361736520616c72656164792041737369676e656420746f20736f6d65204c616044820152603160f91b6064820152608401610329565b600085815260056020819052604082200180546001600160a01b0319166001600160a01b038716179055604051908082528060200260200182016040528015610de1578160200160208202803683370190505b50600560008781526020019081526020016000206006019080519060200190610e0b92919061381b565b506001805490806000610e1e8285614215565b90915550506001600160a01b0385166000908152600660208181526040808420805460018181018355918652838620018690558a85526005808452828620948501805492830181558652838620909101869055815161014081019092528a8252938a905292815281549083019190610e9590614112565b80601f0160208091040260200160405190810160405280929190818152602001828054610ec190614112565b8015610f0e5780601f10610ee357610100808354040283529160200191610f0e565b820191906000526020600020905b815481529060010190602001808311610ef157829003601f168201915b50505050508152602001336001600160a01b0316815260200160056000898152602001908152602001600020600301805480602002602001604051908101604052809291908181526020016000905b82821015611009578382906000526020600020018054610f7c90614112565b80601f0160208091040260200160405190810160405280929190818152602001828054610fa890614112565b8015610ff55780601f10610fca57610100808354040283529160200191610ff5565b820191906000526020600020905b815481529060010190602001808311610fd857829003601f168201915b505050505081526020019060010190610f5d565b505050508152602001866001600160a01b031681526020018581526020016040518060400160405280600781526020016650656e64696e6760c81b8152508152602001600067ffffffffffffffff81111561106657611066613a09565b60405190808252806020026020018201604052801561109957816020015b60608152602001906001900390816110845790505b50815260408051602081810183526000808352818501929092529282018790528481526007835220825181559082015160018201906110d8908261428e565b5060408201516002820180546001600160a01b0319166001600160a01b039092169190911790556060820151805161111a9160038401916020909101906137c5565b5060808201516004820180546001600160a01b0319166001600160a01b0390921691909117905560a08201516005820190611155908261428e565b5060c0820151600682019061116a908261428e565b5060e082015180516111869160078401916020909101906137c5565b50610100820151600882019061119c908261428e565b5061012091909101516009909101556000868152600860205260409020546111c2613862565b84815260006111d088613584565b9050806040516020016111e39190614385565b60408051601f19818403018152918152602084810192909252338482015260008b8152600890925290206112186001856143d5565b81548110611228576112286141e9565b9060005260206000209060040201600301805461124490614112565b80601f016020809104026020016040519081016040528092919081815260200182805461127090614112565b80156112bd5780601f10611292576101008083540402835291602001916112bd565b820191906000526020600020905b8154815290600101906020018083116112a057829003601f168201915b505050505060608301526000898152600860209081526040822080546001808201835591845292829020855160049094020192835590840151849291820190611306908261428e565b5060408201516002820180546001600160a01b0319166001600160a01b0390921691909117905560608201516003820190611341908261428e565b5060019b9a5050505050505050505050565b6060600060405160200161136690614101565b60408051601f19818403018152828252805160209182012033600090815260028352929092209192611399929101614146565b60405160208183030381529060405280519060200120036113bc575060016113d0565b336001600160a01b038416036113d0575060015b8080156113f457506001600160a01b03831660009081526004602052604090205415155b15611464576001600160a01b0383166000908152600460209081526040918290208054835181840281018401909452808452909183018282801561145757602002820191906000526020600020905b815481526020019060010190808311611443575b5050505050915050919050565b50919050565b6000848152600760205260408120600401546001600160a01b031633146114a35760405162461bcd60e51b8152600401610329906143e8565b60005b835181101561150957600760008781526020019081526020016000206007018482815181106114d7576114d76141e9565b60209081029190910181015182546001810184556000938452919092200190611500908261428e565b506001016114a6565b506000858152600760205260409020600801611525838261428e565b5060008581526007602090815260408083205480845260089092529091205461154c613862565b868152600061155a33613584565b9050808660405160200161156f92919061443a565b60408051601f1981840301815291815260208481019290925233848201526000868152600890925290206115a46001856143d5565b815481106115b4576115b46141e9565b906000526020600020906004020160030180546115d090614112565b80601f01602080910402602001604051908101604052809291908181526020018280546115fc90614112565b80156116495780601f1061161e57610100808354040283529160200191611649565b820191906000526020600020905b81548152906001019060200180831161162c57829003601f168201915b505050505060608301526000848152600860209081526040822080546001808201835591845292829020855160049094020192835590840151849291820190611306908261428e565b600081815260056020526040812060020154606091906001600160a01b031633036116bf5750600161178b565b6040516020016116ce90614101565b60408051601f19818403018152828252805160209182012033600090815260028352929092209192611701929101614146565b60405160208183030381529060405280519060200120036117245750600161178b565b60005b60008481526009602052604090205481101561178957600084815260096020526040902080548290811061175d5761175d6141e9565b6000918252602090912001546001600160a01b031633036117815760019150611789565b600101611727565b505b806117e75760405162461bcd60e51b815260206004820152602660248201527f596f7520646f6e277420686176652061636365737320746f2074686973206361604482015265736520436f6360d01b6064820152608401610329565b600083815260086020908152604080832080548251818502810185019093528083529193909284015b8282101561198757838290600052602060002090600402016040518060800160405290816000820154815260200160018201805461184d90614112565b80601f016020809104026020016040519081016040528092919081815260200182805461187990614112565b80156118c65780601f1061189b576101008083540402835291602001916118c6565b820191906000526020600020905b8154815290600101906020018083116118a957829003601f168201915b505050918352505060028201546001600160a01b031660208201526003820180546040909201916118f690614112565b80601f016020809104026020016040519081016040528092919081815260200182805461192290614112565b801561196f5780601f106119445761010080835404028352916020019161196f565b820191906000526020600020905b81548152906001019060200180831161195257829003601f168201915b50505050508152505081526020019060010190611810565b50505050915050919050565b61199b613767565b6000828152600560205260408120600201546001600160a01b031633036119c457506001611a90565b6040516020016119d390614101565b60408051601f19818403018152828252805160209182012033600090815260028352929092209192611a06929101614146565b6040516020818303038152906040528051906020012003611a2957506001611a90565b60005b600084815260096020526040902054811015611a8e576000848152600960205260409020805482908110611a6257611a626141e9565b6000918252602090912001546001600160a01b03163303611a865760019150611a8e565b600101611a2c565b505b80611ae85760405162461bcd60e51b815260206004820152602260248201527f596f7520646f6e277420686176652061636365737320746f2074686973206361604482015261736560f01b6064820152608401610329565b6000838152600560205260409081902081516101208101909252805482908290611b1190614112565b80601f0160208091040260200160405190810160405280929190818152602001828054611b3d90614112565b8015611b8a5780601f10611b5f57610100808354040283529160200191611b8a565b820191906000526020600020905b815481529060010190602001808311611b6d57829003601f168201915b50505050508152602001600182015481526020016002820160009054906101000a90046001600160a01b03166001600160a01b03166001600160a01b0316815260200160038201805480602002602001604051908101604052809291908181526020016000905b82821015611c9d578382906000526020600020018054611c1090614112565b80601f0160208091040260200160405190810160405280929190818152602001828054611c3c90614112565b8015611c895780601f10611c5e57610100808354040283529160200191611c89565b820191906000526020600020905b815481529060010190602001808311611c6c57829003601f168201915b505050505081526020019060010190611bf1565b50505050815260200160048201805480602002602001604051908101604052809291908181526020016000905b82821015611d76578382906000526020600020018054611ce990614112565b80601f0160208091040260200160405190810160405280929190818152602001828054611d1590614112565b8015611d625780601f10611d3757610100808354040283529160200191611d62565b820191906000526020600020905b815481529060010190602001808311611d4557829003601f168201915b505050505081526020019060010190611cca565b5050509082525060058201546001600160a01b03166020808301919091526006830180546040805182850281018501825282815294019392830182828015611ddd57602002820191906000526020600020905b815481526020019060010190808311611dc9575b50505050508152602001600782018054611df690614112565b80601f0160208091040260200160405190810160405280929190818152602001828054611e2290614112565b8015611e6f5780601f10611e4457610100808354040283529160200191611e6f565b820191906000526020600020905b815481529060010190602001808311611e5257829003601f168201915b5050505050815260200160088201805480602002602001604051908101604052809291908181526020016000905b82821015611f49578382906000526020600020018054611ebc90614112565b80601f0160208091040260200160405190810160405280929190818152602001828054611ee890614112565b8015611f355780601f10611f0a57610100808354040283529160200191611f35565b820191906000526020600020905b815481529060010190602001808311611f1857829003601f168201915b505050505081526020019060010190611e9d565b50505091525090949350505050565b6000604051602001611f6990614101565b60408051601f19818403018152828252805160209182012033600090815260028352929092209192611f9c929101614146565b6040516020818303038152906040528051906020012014611fcf5760405162461bcd60e51b8152600401610329906141bc565b6001600160a01b0383166000908152600260205260409020611ff1838261428e565b505060038054600180820183556000929092527fc2575a0e9e593c00f959f8c92f12db2869c3395a3b0502d05e2516446f71f85b0180546001600160a01b0319166001600160a01b0385161790555b92915050565b6000838152600560205260408120600201546001600160a01b031633146120b95760405162461bcd60e51b815260206004820152602160248201527f596f7520617265206e6f74204f776e6572206f66207468652045766964656e636044820152606560f81b6064820152608401610329565b600084815260086020908152604080832054600990925282205490915b8181101561239057600087815260096020526040902080546001600160a01b03881691908390811061210a5761210a6141e9565b6000918252602090912001546001600160a01b03160361238857600087815260096020526040902061213d6001846143d5565b8154811061214d5761214d6141e9565b60009182526020808320909101548983526009909152604090912080546001600160a01b039092169183908110612186576121866141e9565b600091825260208083209190910180546001600160a01b0319166001600160a01b0394909416939093179092558881526009909152604090208054806121ce576121ce6144ac565b600082815260209020810160001990810180546001600160a01b03191690550190556121f8613862565b858152600061220688613584565b90508060405160200161221991906144c2565b60408051601f19818403018152918152602084810192909252338482015260008b81526008909252902061224e6001876143d5565b8154811061225e5761225e6141e9565b9060005260206000209060040201600301805461227a90614112565b80601f01602080910402602001604051908101604052809291908181526020018280546122a690614112565b80156122f35780601f106122c8576101008083540402835291602001916122f3565b820191906000526020600020905b8154815290600101906020018083116122d657829003601f168201915b50505050506060830152600089815260086020908152604082208054600180820183559184529282902085516004909402019283559084015184929182019061233c908261428e565b5060408201516002820180546001600160a01b0319166001600160a01b0390921691909117905560608201516003820190612377908261428e565b5050506001955050505050506124c2565b6001016120d6565b506001600160a01b0385166000908152600a6020526040812054905b818110156124b9576001600160a01b0387166000908152600a602052604090208054899190839081106123e1576123e16141e9565b9060005260206000200154036124b1576001600160a01b0387166000908152600a602052604090206124146001846143d5565b81548110612424576124246141e9565b9060005260206000200154600a6000896001600160a01b03166001600160a01b031681526020019081526020016000208281548110612465576124656141e9565b60009182526020808320909101929092556001600160a01b0389168152600a9091526040902080548061249a5761249a6144ac565b600190038181906000526020600020016000905590555b6001016123ac565b50600093505050505b9392505050565b3360009081526002602052604090208054606091906124e790614112565b80601f016020809104026020016040519081016040528092919081815260200182805461251390614112565b80156125605780601f1061253557610100808354040283529160200191612560565b820191906000526020600020905b81548152906001019060200180831161254357829003601f168201915b5050505050905090565b6000818152600560205260409020600201546060906001600160a01b031633146125a65760405162461bcd60e51b81526004016103299061434e565b6000828152600960209081526040918290208054835181840281018401909452808452909183018282801561260457602002820191906000526020600020905b81546001600160a01b031681526001909101906020018083116125e6575b50505050509050919050565b60008481526009602052604081208054829061262e5761262e6141e9565b6000918252602090912001546001600160a01b031633146126a75760405162461bcd60e51b815260206004820152602d60248201527f596f7520646f6e277420686176652061636365737320746f207570646174652060448201526c7374617465206f66204361736560981b6064820152608401610329565b60008581526005602052604090206007016126c2838261428e565b50600085815260056020908152604090912084516126e8926008909201918601906137c5565b506126f1613862565b84815260006126ff33613584565b90508084604051602001612714929190614507565b60408051601f198184030181529181526020848101928352338583015281518083018352600681526514dbdb1d995960d21b81830152606086015260008a8152600882529182208054600181810183559184529190922085516004909202019081559151849291820190612788908261428e565b5060408201516002820180546001600160a01b0319166001600160a01b03909216919091179055606082015160038201906127c3908261428e565b5060019998505050505050505050565b606060006040516020016127e690614101565b60408051601f19818403018152828252805160209182012033600090815260028352929092209192612819929101614146565b604051602081830303815290604052805190602001200361283c57506001612850565b336001600160a01b03841603612850575060015b80801561287457506001600160a01b03831660009081526006602052604090205415155b15611464576001600160a01b038316600090815260066020908152604091829020805483518184028101840190945280845290918301828280156114575760200282019190600052602060002090815481526020019060010190808311611443575050505050915050919050565b6000818152600760205260408120600401546001600160a01b0316331461291b5760405162461bcd60e51b8152600401610329906143e8565b6000828152600760208190526040909120015461297a5760405162461bcd60e51b815260206004820152601760248201527f4669727374207375626d697420746865207265706f72740000000000000000006044820152606401610329565b6000828152600760205260408120600801805461299690614112565b9050116129e55760405162461bcd60e51b815260206004820152601a60248201527f4669727374207375626d69742074686520696e666572656e63650000000000006044820152606401610329565b60405180604001604052806004815260200163446f6e6560e01b815250600760008481526020019081526020016000206006019081612a24919061428e565b50600192915050565b6000838152600560205260408120600201546001600160a01b03163314612a665760405162461bcd60e51b81526004016103299061434e565b60008481526008602052604081205490805b600087815260096020526040902054811015612ae157600087815260096020526040902080546001600160a01b038816919083908110612aba57612aba6141e9565b6000918252602090912001546001600160a01b031603612ad957600191505b600101612a78565b508015612b3a5760405162461bcd60e51b815260206004820152602160248201527f4164647265737320697320616c7265616479204772616e7465642041636365736044820152607360f81b6064820152608401610329565b60008681526009602090815260408083208054600180820183559185528385200180546001600160a01b0319166001600160a01b038b169081179091558452600a8352908320805491820181558352912001869055612b97613862565b8481526000612ba587613584565b905080604051602001612bb89190614580565b60408051601f19818403018152918152602084810192909252338482015260008a815260089092529020612bed6001866143d5565b81548110612bfd57612bfd6141e9565b90600052602060002090600402016003018054612c1990614112565b80601f0160208091040260200160405190810160405280929190818152602001828054612c4590614112565b8015612c925780601f10612c6757610100808354040283529160200191612c92565b820191906000526020600020905b815481529060010190602001808311612c7557829003601f168201915b505050505060608301526000888152600860209081526040822080546001808201835591845292829020855160049094020192835590840151849291820190612cdb908261428e565b5060408201516002820180546001600160a01b0319166001600160a01b0390921691909117905560608201516003820190612d16908261428e565b5060019a9950505050505050505050565b60606000604051602001612d3a90614101565b60408051601f19818403018152828252805160209182012033600090815260028352929092209192612d6d929101614146565b6040516020818303038152906040528051906020012003612d9057506001612da4565b336001600160a01b03841603612da4575060015b8015611464576001600160a01b0383166000908152600a6020908152604091829020805483518184028101840190945280845290918301828280156114575760200282019190600052602060002090815481526020019060010190808311611443575050505050915050919050565b612e7b604051806101400160405280600081526020016060815260200160006001600160a01b031681526020016060815260200160006001600160a01b0316815260200160608152602001606081526020016060815260200160608152602001600081525090565b604051623630b160e91b602082015260009060230160408051601f19818403018152828252805160209182012033600090815260028352929092209192612ec3929101614146565b6040516020818303038152906040528051906020012003612f5f576000838152600760205260409020600401546001600160a01b03163314612f575760405162461bcd60e51b815260206004820152602760248201527f596f7520646f6e277420686176652061636365737320746f206f7468657273206044820152667265706f72747360c81b6064820152608401610329565b506001613105565b604051602001612f6e90614101565b60408051601f19818403018152828252805160209182012033600090815260028352929092209192612fa1929101614146565b6040516020818303038152906040528051906020012003612fc457506001613105565b60405165706f6c69636560d01b602082015260260160408051601f1981840301815282825280516020918201203360009081526002835292909220919261300c929101614146565b6040516020818303038152906040528051906020012003613088576000838152600760205260409020600201546001600160a01b03163314612f575760405162461bcd60e51b8152602060048201526015602482015274596f7520646f6e277420686176652061636365737360581b6044820152606401610329565b60005b60008481526007602090815260408083205483526009909152902054811015613103576000848152600760209081526040808320548352600990915290208054829081106130db576130db6141e9565b6000918252602090912001546001600160a01b031633036130fb57600191505b60010161308b565b505b6001811515146131275760405162461bcd60e51b8152600401610329906141bc565b60076000848152602001908152602001600020604051806101400160405290816000820154815260200160018201805461316090614112565b80601f016020809104026020016040519081016040528092919081815260200182805461318c90614112565b80156131d95780601f106131ae576101008083540402835291602001916131d9565b820191906000526020600020905b8154815290600101906020018083116131bc57829003601f168201915b505050918352505060028201546001600160a01b0316602080830191909152600383018054604080518285028101850182528281529401939260009084015b828210156132c457838290600052602060002001805461323790614112565b80601f016020809104026020016040519081016040528092919081815260200182805461326390614112565b80156132b05780601f10613285576101008083540402835291602001916132b0565b820191906000526020600020905b81548152906001019060200180831161329357829003601f168201915b505050505081526020019060010190613218565b5050509082525060048201546001600160a01b031660208201526005820180546040909201916132f390614112565b80601f016020809104026020016040519081016040528092919081815260200182805461331f90614112565b801561336c5780601f106133415761010080835404028352916020019161336c565b820191906000526020600020905b81548152906001019060200180831161334f57829003601f168201915b5050505050815260200160068201805461338590614112565b80601f01602080910402602001604051908101604052809291908181526020018280546133b190614112565b80156133fe5780601f106133d3576101008083540402835291602001916133fe565b820191906000526020600020905b8154815290600101906020018083116133e157829003601f168201915b5050505050815260200160078201805480602002602001604051908101604052809291908181526020016000905b828210156134d857838290600052602060002001805461344b90614112565b80601f016020809104026020016040519081016040528092919081815260200182805461347790614112565b80156134c45780601f10613499576101008083540402835291602001916134c4565b820191906000526020600020905b8154815290600101906020018083116134a757829003601f168201915b50505050508152602001906001019061342c565b5050505081526020016008820180546134f090614112565b80601f016020809104026020016040519081016040528092919081815260200182805461351c90614112565b80156135695780601f1061353e57610100808354040283529160200191613569565b820191906000526020600020905b81548152906001019060200180831161354c57829003601f168201915b50505050508152602001600982015481525050915050919050565b604080518082018252601081526f181899199a1a9b1b9c1cb0b131b232b360811b60208201528151602a80825260608281019094526001600160a01b0385169291600091602082018180368337019050509050600360fc1b816000815181106135ef576135ef6141e9565b60200101906001600160f81b031916908160001a905350600f60fb1b8160018151811061361e5761361e6141e9565b60200101906001600160f81b031916908160001a90535060005b6014816001600160801b0316101561375e5760008461365883600c6145c5565b6001600160801b031660208110613671576136716141e9565b855191901a91508490600483901c60ff16908110613691576136916141e9565b01602001516001600160f81b031916836136ac8460026145ec565b6136b79060026145c5565b6001600160801b0316815181106136d0576136d06141e9565b60200101906001600160f81b031916908160001a9053508381600f1660ff16815181106136ff576136ff6141e9565b01602001516001600160f81b0319168361371a8460026145ec565b6137259060036145c5565b6001600160801b03168151811061373e5761373e6141e9565b60200101906001600160f81b031916908160001a90535050600101613638565b50949350505050565b604051806101200160405280606081526020016000815260200160006001600160a01b03168152602001606081526020016060815260200160006001600160a01b031681526020016060815260200160608152602001606081525090565b82805482825590600052602060002090810192821561380b579160200282015b8281111561380b57825182906137fb908261428e565b50916020019190600101906137e5565b50613817929150613893565b5090565b828054828255906000526020600020908101928215613856579160200282015b8281111561385657825182559160200191906001019061383b565b506138179291506138b0565b6040518060800160405280600081526020016060815260200160006001600160a01b03168152602001606081525090565b808211156138175760006138a782826138c5565b50600101613893565b5b8082111561381757600081556001016138b1565b5080546138d190614112565b6000825580601f106138e1575050565b601f0160209004906000526020600020908101906138ff91906138b0565b50565b60008151808452602080850194506020840160005b8381101561393c5781516001600160a01b031687529582019590820190600101613917565b509495945050505050565b60005b8381101561396257818101518382015260200161394a565b50506000910152565b60008151808452613983816020860160208601613947565b601f01601f19169290920160200192915050565b6040815260006139aa6040830185613902565b6020838203818501528185518084528284019150828160051b85010183880160005b838110156139fa57601f198784030185526139e883835161396b565b948601949250908501906001016139cc565b50909998505050505050505050565b634e487b7160e01b600052604160045260246000fd5b604051601f8201601f1916810167ffffffffffffffff81118282101715613a4857613a48613a09565b604052919050565b600082601f830112613a6157600080fd5b813567ffffffffffffffff811115613a7b57613a7b613a09565b613a8e601f8201601f1916602001613a1f565b818152846020838601011115613aa357600080fd5b816020850160208301376000918101602001919091529392505050565b600082601f830112613ad157600080fd5b8135602067ffffffffffffffff80831115613aee57613aee613a09565b8260051b613afd838201613a1f565b9384528581018301938381019088861115613b1757600080fd5b84880192505b85831015613b5357823584811115613b355760008081fd5b613b438a87838c0101613a50565b8352509184019190840190613b1d565b98975050505050505050565b60008060008060808587031215613b7557600080fd5b843567ffffffffffffffff80821115613b8d57600080fd5b613b9988838901613a50565b9550602087013594506040870135915080821115613bb657600080fd5b613bc288838901613ac0565b93506060870135915080821115613bd857600080fd5b50613be587828801613ac0565b91505092959194509250565b60008282518085526020808601955060208260051b8401016020860160005b84811015613c3e57601f19868403018952613c2c83835161396b565b98840198925090830190600101613c10565b5090979650505050505050565b60008151808452602080850194506020840160005b8381101561393c57815187529582019590820190600101613c60565b6020815260008251610120806020850152613c9b61014085018361396b565b9150602085015160408501526040850151613cc160608601826001600160a01b03169052565b506060850151601f1980868503016080870152613cde8483613bf1565b935060808701519150808685030160a0870152613cfb8483613bf1565b935060a08701519150613d1960c08701836001600160a01b03169052565b60c08701519150808685030160e0870152613d348483613c4b565b935060e08701519150610100818786030181880152613d53858461396b565b908801518782039092018488015293509050613d6f8382613bf1565b9695505050505050565b80356001600160a01b0381168114613d9057600080fd5b919050565b60008060008060808587031215613dab57600080fd5b84359350613dbb60208601613d79565b9250604085013567ffffffffffffffff811115613dd757600080fd5b613de387828801613a50565b949793965093946060013593505050565b600060208284031215613e0657600080fd5b6124c282613d79565b6020815260006124c26020830184613c4b565b60008060008060808587031215613e3857600080fd5b8435935060208501359250604085013567ffffffffffffffff80821115613e5e57600080fd5b613e6a88838901613ac0565b93506060870135915080821115613e8057600080fd5b50613be587828801613a50565b600060208284031215613e9f57600080fd5b5035919050565b600060208083018184528085518083526040925060408601915060408160051b87010184880160005b83811015613f4057603f19898403018552815160808151855288820151818a870152613efd8287018261396b565b838a01516001600160a01b0316878b0152606093840151878203948801949094529150613f2c9050818361396b565b968901969450505090860190600101613ecf565b509098975050505050505050565b60008060408385031215613f6157600080fd5b613f6a83613d79565b9150602083013567ffffffffffffffff811115613f8657600080fd5b613f9285828601613a50565b9150509250929050565b600080600060608486031215613fb157600080fd5b83359250613fc160208501613d79565b9150604084013590509250925092565b6020815260006124c2602083018461396b565b6020815260006124c26020830184613902565b60208152815160208201526000602083015161014080604085015261402061016085018361396b565b9150604085015161403c60608601826001600160a01b03169052565b506060850151601f19808685030160808701526140598483613bf1565b93506080870151915061407760a08701836001600160a01b03169052565b60a08701519150808685030160c0870152614092848361396b565b935060c08701519150808685030160e08701526140af848361396b565b935060e087015191506101008187860301818801526140ce8584613bf1565b9450808801519250506101208187860301818801526140ed858461396b565b970151959092019490945250929392505050565b6430b236b4b760d91b815260050190565b600181811c9082168061412657607f821691505b60208210810361146457634e487b7160e01b600052602260045260246000fd5b600080835461415481614112565b6001828116801561416c5760018114614181576141b0565b60ff19841687528215158302870194506141b0565b8760005260208060002060005b858110156141a75781548a82015290840190820161418e565b50505082870194505b50929695505050505050565b602080825260139082015272165bdd48185c99481b9bdd08185b1b1bddd959606a1b604082015260600190565b634e487b7160e01b600052603260045260246000fd5b634e487b7160e01b600052601160045260246000fd5b8082018281126000831280158216821582161715614235576142356141ff565b505092915050565b601f821115614289576000816000526020600020601f850160051c810160208610156142665750805b601f850160051c820191505b8181101561428557828155600101614272565b5050505b505050565b815167ffffffffffffffff8111156142a8576142a8613a09565b6142bc816142b68454614112565b8461423d565b602080601f8311600181146142f157600084156142d95750858301515b600019600386901b1c1916600185901b178555614285565b600085815260208120601f198616915b8281101561432057888601518255948401946001909101908401614301565b508582101561433e5787850151600019600388901b60f8161c191681555b5050505050600190811b01905550565b6020808252601d908201527f596f7520617265206e6f74204f776e6572206f66207468652043617365000000604082015260600190565b7f41737369676e6564204361736520746f204c6162207769746820616464726573815261039960f51b6020820152600082516143c8816022850160208701613947565b9190910160220192915050565b81810381811115612040576120406141ff565b60208082526032908201527f596f7520646f6e277420686176652061636365737320746f2075706461746520604082015271746865207265706f72742064657461696c7360701b606082015260800190565b7502ab83230ba32b2102932b837b93a10313c902630b1160551b81526000835161446b816016850160208801613947565b74103bb4ba341034b73332b932b731b29030b990169f60591b60169184019182015283516144a081602b840160208801613947565b01602b01949350505050565b634e487b7160e01b600052603160045260246000fd5b7f5265766f6b6564204163636573732046726f6d20436f757274202000000000008152600082516144fa81601b850160208701613947565b91909101601b0192915050565b7f4d61726b6564204361736520617320536f6c766564206279200000000000000081526000835161453f816019850160208801613947565b74103bb4ba341024b73332b932b731b29030b990169f60591b601991840191820152835161457481602e840160208801613947565b01602e01949350505050565b7f416c6c6f7765642041636365737320546f20436f7572742020000000000000008152600082516145b8816019850160208701613947565b9190910160190192915050565b6001600160801b038181168382160190808211156145e5576145e56141ff565b5092915050565b6001600160801b03818116838216028082169190828114614235576142356141ff56fea2646970667358221220fa165c7f06a0ac7cab450eef1b4d64d5b359700c5fa6d7de38dec38d9676b5fc64736f6c63430008180033",
  "linkReferences": {},
  "deployedLinkReferences": {}
}